type=LUDC-S
mode=application
version =1.0.0.1 STD-2023.11.30
hash=11E9A7FE5BFDC1E3AFFFDADB7869D3B6
:020000040802F0
:1000000098F20020F5BC0408D9C10408DBC104083B
:10001000DDC10408DFC10408E1C1040800000000DC
:1000200000000000000000000000000085950308AB
:10003000E3C10408000000002D950308BBF8020886
:100040004DC6040851C6040855C6040859C604081C
:100050005DC6040861C6040865C6040869C60408CC
:100060006DC6040871C6040875C6040879C604087C
:100070007DC6040881C6040885C6040889C604082C
:100080008DC6040891C6040895C6040899C60408DC
:100090009DC60408A1C60408A5C60408A9C604088C
:1000A000B960030873E70208D5E70208ADC6040883
:1000B00081270308B1C60408A9270308B5C60408A8
:1000C000B9C60408BDC60408C1C60408C5C60408EC
:1000D000C9C60408E90B030859D20208B58B030806
:1000E000CDC60408D1C60408D5C60408D127030824
:1000F000F927030831600308D9C60408DDC60408DF
:10010000E1C60408E5C6040847420408E9C6040835
:10011000CD8F0308E593030851AD0208F95B02088F
:10012000EDC60408F1C60408F5C60408F9C60408BB
:10013000FDC6040801C7040805C7040809C7040868
:100140000DC7040811C7040815C7040819C7040817
:100150001DC7040821C7040825C7040829C70408C7
:100160002DC7040831C7040835C7040839C7040877
:100170003DC7040841C7040845C7040849C7040827
:100180004DC7040851C70408451A030887CF020861
:1001900055C7040859C704085DC7040861C70408A7
:1001A000000000000000000065C7040838B5040026
:1001B0000D002900200003F025FF002801D10120B7
:1001C00000E00020C0B232BDF8B50020039000204E
:1001D0000290DFF8080A01900420009000234FF4F9
:1001E0008072DFF84C1C0FF20D0003F04DFF05B0DC
:1001F00000BD000010B50400002004F02AF8DFF86C
:10020000E00900880121B0FBF1F003F0E6FFDFF820
:10021000D4090078012802D0032803D0EFE705F0C5
:100220002DFAECE705F0FCFCE9E738B504000D0019
:10023000DFF8B4196868FFF7B9FF00281DD0A86877
:10024000002814D0A86805F022FE0A280FDBA86851
:1002500005F01DFEDFF8881908800320DFF88419F7
:100260000870DFF87809006804F07AF82EE0A968D1
:10027000DFF8780906F063F828E0DFF87419686899
:10028000FFF794FF002805D0DFF85009006803F05D
:10029000E0FF1BE0686800280CD0DFF85819686898
:1002A000FFF784FF002805D140A16868FFF77EFFB3
:1002B00000280BD0DFF8400906F041F8DFF83C09D0
:1002C00006F03DF8DFF8480C06F039F8002032BDA2
:1002D00070B504000D000026DFF824196868FFF7E8
:1002E00065FF002809D006F025FA06003100C9B2E2
:1002F000DFF8100906F023F817E0686800280CD032
:10030000DFF8F0186868FFF751FF002805D127A132
:100310006868FFF74BFF002807D0DFF8EC0806F00D
:100320000EF8DFF8F00B06F00AF8F6B2300070BDF8
:10033000F8B504000D00686800281CD0A8680028E3
:1003400014D0E868002811D0E86805F0A0FD060088
:10035000A86805F09CFD0700686805F098FD32006C
:1003600092B2390089B206F05CFA1CE0DFF89C0812
:1003700005F0E5FF17E0686800280CD0DFF8741876
:100380006868FFF713FF002805D108A16868FFF728
:100390000DFF002807D0DFF8780805F0D0FFDFF860
:1003A000780B05F0CCFF0020F2BD00003F000000FC
:1003B00070B588B004000D00DFF8541A6868FFF7C4
:1003C000F5FE002802D006F0F2FACFE0DFF86C1A52
:1003D0006868FFF7EBFE00281CD0A868002814D03E
:1003E000E868002811D0286900280ED0286905F097
:1003F0004EFD0600E86805F04AFD320092B20100A9
:1004000089B2A86806F0F5FAB0E0DFF8000805F058
:1004100096FFABE0DFF8281A6868FFF7C7FE0028F0
:100420000ED0A868002806D0A86805F030FD80B27C
:1004300006F08AFB9AE0DFF8D40705F080FF95E02C
:10044000DFF8001A6868FFF7B1FE00282FD0A8680F
:10045000002827D0E868002824D068461E2106F02E
:1004600017FCE86805F013FD0600A86805F00FFD0D
:100470006A46310006F03EFC3EA005F060FF002613
:10048000E86805F004FD864207DA6846815DDFF81A
:10049000B80905F054FF761CF2E7694636A005F06E
:1004A0004EFF63E0DFF8640705F049FF5EE0DFF828
:1004B0009C196868FFF77AFE002807D006F0B7FBA2
:1004C00080B201002DA005F03AFF4FE0DFF8541A8A
:1004D0006868FFF76BFE002808D006F0A4FB060052
:1004E000310049B225A005F02AFF3FE0DFF83C1AB1
:1004F0006868FFF75BFE002802D006F090FB35E04D
:10050000686800280CD0DFF8EC166868FFF74EFE2C
:10051000002805D18FA16868FFF748FE002820D089
:10052000DFF80C0A05F00BFFDFF8080A05F007FFFB
:10053000DFF8040A05F003FFDFF8000A05F0FFFE0C
:10054000DFF8FC0905F0FBFEDFF8F80905F0F7FE1F
:10055000DFF8F40905F0F3FEDFF8F00905F0EFFE2F
:1005600004E06968DFF8B80C05F0E9FE002008B087
:1005700070BD00000A0000000A25730025640A000F
:1005800070B588B004000D00DFF8C4196868FFF783
:100590000DFE002821D0A868002819D0E86800289E
:1005A00016D02869002813D0E86805F070FC060012
:1005B000A86805F06CFC2A69310006F080FDA86887
:1005C00005F065FC0100DFF88C0905F0B8FEBDE020
:1005D000DFF8380605F0B3FEB8E0DFF860186868A9
:1005E000FFF7E4FD002821D0A868002819D0E868AA
:1005F000002816D02869002813D0E86805F047FCC9
:100600000600A86805F043FC2A69310006F0D2FD17
:10061000A86805F03CFC0100DFF8380905F08FFE02
:1006200094E0DFF8E80505F08AFE8FE0DFF81418A3
:100630006868FFF7BBFD002834D0A86800282CD0DC
:10064000E868002829D068461E2106F021FBE868EA
:1006500005F01DFC0600A86805F019FC6A4631008B
:1006600006F016FDA86805F012FC0100DFF8E808A6
:1006700005F065FE0026E86805F009FC864207DA09
:100680006846815DDFF8C00705F059FE761CF2E789
:10069000694631A005F053FE58E0DFF8700505F01B
:1006A0004EFE53E0DFF868176868FFF77FFD00280B
:1006B00015D0A86800280DD0A86805F0E8FB06F062
:1006C000D6FCA86805F0E3FB0100DFF8900805F010
:1006D00036FE3BE0DFF8340505F031FE36E01FA1C1
:1006E0006868FFF763FD002806D0DFF87418DFF8AC
:1006F000740805F024FE29E0686800280CD0DFF8B3
:10070000F4146868FFF752FD002805D111A168684C
:10071000FFF74CFD002814D0DFF84C0805F00FFE61
:10072000DFF80C0B05F00BFEDFF8080B05F007FEF9
:10073000DFF8040B05F003FEDFF8000B05F0FFFD0A
:1007400004E06968DFF8D80A05F0F9FD002008B078
:1007500070BD00003F0000000A257300656E640054
:1007600038B504000D0006F050FE002007F0CFFB66
:1007700007F053FD08F00EFA04F022FC002032BD11
:10078000F8B52DED028B04000D0098A16868FFF705
:100790000DFD00280DD0A868002805D0A86805F038
:1007A0000DF907F0B4FBE0E0DFF8940A05F0C7FDAF
:1007B000DBE0DFF8901A6868FFF7F8FC002816D035
:1007C000A86800280ED0A86805F061FB012809DBA5
:1007D0000126A86805F05BFB471EBE40300007F00D
:1007E00096FBC2E0DFF8580A05F0A9FDBDE0DFF88E
:1007F0005C1A6868FFF7DAFC002803D0002007F0D5
:1008000086FBB2E089A16868FFF7D0FC002808D019
:1008100007F0E5FB06003100DFF8340A05F08FFD34
:10082000A3E0DFF8301A6868FFF7C0FC002808D0A2
:1008300007F0A1FA80B20100DFF81C0A05F07FFD85
:1008400093E07BA16868FFF7B1FC002815D0E86849
:1008500008F081FAB0EE408AF0EE608AA86805F0F0
:1008600016FB060051EC180B08F088FA00EE100A8F
:100870003000C0B208F0FAFB77E06EA16868FFF7BD
:1008800095FC002806D0A86805F001FBC0B208F06E
:1008900057FB6AE068A16868FFF788FC002806D06B
:1008A000A86805F0F4FAC0B208F09CFB5DE063A113
:1008B0006868FFF77BFC002812D0A868002854D095
:1008C000E868002851D0E86805F0E1FA0600A86859
:1008D00005F0DDFA3100C9B2C0B209F085F944E093
:1008E000686800280BD0C3496868FFF75FFC0028E0
:1008F00005D153A16868FFF759FC002830D0DFF814
:100900005C0905F01CFDDFF85819DFF8580905F0FF
:1009100016FD07F030FA80B20100DFF84C0905F04F
:100920000EFDDFF8480905F00AFDDFF8440905F07F
:1009300006FD052004F0CAFFDFF8380905F0FFFCCA
:10094000DFF8340905F0FBFCDFF8300905F0F7FCAF
:10095000DFF82C0905F0F3FC642004F0B7FF04E095
:100960006968DFF8BC0805F0EAFC0020BDEC028BEA
:10097000F2BD70B504000D006868002818D06868E2
:1009800005F085FA060006F0FFFD864206DA686883
:1009900005F07DFADFF8EC18087025E006F0F4FDAC
:1009A00080B2401E0100DFF8E00805F0C8FC1BE043
:1009B000686800280BD08F496868FFF7F7FB0028AC
:1009C00005D11FA16868FFF7F1FB00280CD0DFF804
:1009D000BC0805F0B4FC06F0D7FD010089B2491E41
:1009E000DFF8EC0B05F0ABFC002070BD6D61700012
:1009F000F8B504000D00DFF88C68307807F08BF84C
:100A000007003800C0B2002802D0012806D00AE052
:100A10003178DFF87C0805F092FC04E03178DFF8EB
:100A2000B40B05F08CFC0020F2BD0000676574007B
:100A3000646163006F6E00006F6666006578000099
:100A40003F0000002DE9F0472DED028B82B004003D
:100A50000D005FA16868FFF7A9FB002839D0A868DE
:100A6000002832D0DFF81C683078032820D1A8682D
:100A700008F071F951EC100B08F080F900EE100A43
:100A8000032006F0B3FEA86808F065F951EC100BDE
:100A900008F074F900EE100A09F0F0F9A86808F0FF
:100AA0005AF953EC102BDFF8300B05F048FC89E0C5
:100AB000A86808F050F951EC100B08F05FF900EE4F
:100AC000100A307806F092FE7CE0504805F037FCC2
:100AD00078E040A16868FFF769FB002816D0DFF8CE
:100AE000A467307806F02CFDB0EE408A3178DFF84C
:100AF000EC0A05F024FC0821B0EE480A012004F0BD
:100B000002FFDFF8DC0A05F01AFC5BE068680028E9
:100B10000BD038496868FFF749FB002805D12EA1A2
:100B20006868FFF743FB00280CD0DFF8B80A05F02F
:100B300006FCDFF8B40A05F002FCDFF8B40A05F0A1
:100B4000FEFB3FE0DFF8AC1A6868FFF72FFB0028D8
:100B500033D068460021016000200190DFF8986AD8
:100B6000A86805F094F907003800C0B202280ADB33
:100B70006A4604213B00DBB2DFF8800A10EB8300F9
:100B800006F086FA07E06A4604213800C0B216EB88
:100B9000800006F07DFA5FF00408E9460DF1040AD2
:100BA00042464946504609F025FC019A3900C9B22F
:100BB000DFF84C0A05F0C3FB04E06968DFF8600663
:100BC00005F0BDFB002002B0BDEC028BBDE8F08754
:100BD00073657400676574003F000000E0EC00205E
:100BE00036EE00205AEE002098C20408CCB004086B
:100BF000A0C2040818C204089C870408389D040891
:100C0000A8C20408E0B00408C087040874B7040848
:100C10003893040870B52DED048B05000E0085A1F6
:100C20007068FFF7C3FA002833D0B06800282BD0D3
:100C3000F068002828D0F06808F08DF8B0EE408AFF
:100C4000F0EE608AB06808F086F8B0EE409AF0EEF8
:100C5000609A00210C0051EC180B08F08FF800EEA0
:100C6000900A2100B0EE608A0C0051EC190B08F0DC
:100C700085F800EE100A2100F0EE480ADFF80406BD
:100C8000007806F083FCBEE0DFF8780905F057FB3A
:100C9000B9E069A17068FFF789FA002822D0DFF86F
:100CA000E445207806F0E7FBB0EE408AF0EE608A7B
:100CB0002178DFF8540905F042FB0421B0EE480A20
:100CC000012004F020FEDFF8440905F038FB042180
:100CD000B0EE680A012004F016FEDFF8340905F0D2
:100CE0002EFB90E0DFF82C197068FFF75FFA002800
:100CF00033D0B06800282BD0F068002828D0F068E6
:100D000008F029F8B0EE408AF0EE608AB06808F08A
:100D100022F8B0EE409AF0EE609A01210C0051ECFE
:100D2000180B08F02BF800EE900A2100B0EE608A54
:100D30000C0051EC190B08F021F800EE100A21000C
:100D4000F0EE480ADFF83C05007806F01FFC5AE098
:100D5000DFF8B00805F0F3FA55E0DFF8BC1870686A
:100D6000FFF724FA002808D009F0B5F804002100A4
:100D7000DFF8A80805F0E3FA45E0DFF8A41870688A
:100D8000FFF714FA002810D0B06800283BD0B068F4
:100D900005F07DF809F0B3F8B06805F078F80100C7
:100DA000DFF8800805F0CBFA2DE0706800280CD041
:100DB000DFF874187068FFF7F9F9002805D157A11A
:100DC0007068FFF7F3F9002818D0DFF8600805F025
:100DD000B6FADFF85C0805F0B2FADFF8580805F05B
:100DE000AEFADFF8540805F0AAFADFF8500805F06B
:100DF000A6FADFF84C0805F0A2FA04E07168DFF803
:100E0000200405F09CFA0020BDEC048B70BD0000AE
:100E1000B0C2040838B504000D0006F0B5FB80B27E
:100E20000100DFF8200805F08AFA002032BD00003A
:100E300094BD04087365740067657400B8C2040843
:100E400088C20408C0C20408C8C20408D0C204088A
:100E500070B52DED028B04000D00DFF8EC1768680B
:100E6000FFF7A4F9002816D0A86800280ED0A868BB
:100E700007F071FF51EC100B07F080FF00EE100A35
:100E8000DFF80004007806F0A9FD3CE0DFF8740705
:100E900005F055FA37E022A16868FFF787F90028C6
:100EA00015D0DFF8E063307806F0C6FAB0EE408A7D
:100EB0003178DFF8980705F042FA0421B0EE480ACD
:100EC000012004F020FD18A005F039FA1BE0686845
:100ED00000280CD0DFF850176868FFF767F9002882
:100EE00005D10EA16868FFF761F900280BD0DFF883
:100EF000600705F024FADFF85C0705F020FADFF858
:100F0000AC0C05F01CFA0020BDEC028B70BD00009B
:100F1000549D0408E4870408687F04083F0000002B
:100F200067657400D8C20408206D6C00E0C2040834
:100F3000709D040884B70408088804082C880408F5
:100F4000508804087488040898880408BC88040839
:100F5000A0BD040808B1040894B70408A4B70408A5
:100F6000EC010108ACBD0408589304082DE9F843CE
:100F70002DED068B06000F005FF00008DFF8D81695
:100F80007868FFF713F9002806D1A6A42100786835
:100F9000FFF70CF9002804D001208046002005004E
:100FA0009FE0DFF8B8167868FFF700F9002807D14E
:100FB0000FF2742949467868FFF7F8F8002804D042
:100FC00001208046012005008BE098A17868FFF79A
:100FD000EDF8002800F085802100B868FFF7E6F8FA
:100FE00000283CD0386907F0B6FEB0EE408AF0EE3B
:100FF000608A786907F0AFFEB0EE409AF0EE609A32
:10100000F86807F0A8FEB0EE40AAF0EE60AA002053
:10101000040051EC180B07F0B1FE01EE100A20009D
:10102000B0EE418A040051EC190B07F0A7FE00EE68
:10103000900A2000B0EE481AB0EE608AF0EE418AC5
:10104000040051EC1A0B07F099FE00EE100A200084
:10105000B0EE681AF0EE480A08F0F4FF41E04946A5
:10106000B868FFF7A3F800283BD0386907F073FE93
:10107000B0EE408AF0EE608A786907F06CFEB0EE60
:10108000409AF0EE609AF86807F065FEB0EE40AA6C
:10109000F0EE60AA0120040051EC180B07F06EFE80
:1010A00001EE100A2000B0EE418A040051EC190B49
:1010B00007F064FE00EE900A2000B0EE481AB0EE91
:1010C000608AF0EE418A040051EC1A0B07F056FEDC
:1010D00000EE100A2000B0EE681AF0EE480A08F0A0
:1010E000B1FF4046C0B201285CD1B868002854D096
:1010F000F86800283ED0386900283BD0386907F0EE
:101100002AFEB0EE408AF0EE608AF86807F023FE0F
:10111000B0EE409AF0EE609ADFF8689101210C0081
:1011200051EC180B07F02AFE00EE900A2100B0EEF9
:10113000608A0C0051EC190B07F020FE00EE100A3B
:101140002100F0EE480A99F8000006F01FFAB8688E
:1011500007F001FE0322140051EC100B07F00EFE05
:1011600000EE100A22002900C9B299F8000006F02A
:101170009BFB50E0B86807F0EEFD0222140051EC32
:10118000100B07F0FBFD00EE100A22002900C9B287
:101190003C48007806F088FB3DE0DFF8680405F085
:1011A000CEF838E0DFF8141A7868FEF7FFFF002861
:1011B00004D03448007806F0D6FB2CE0786800288C
:1011C0000CD0DFF864147868FEF7F0FF002805D132
:1011D0001DA17868FEF7EAFF002818D0DFF8A00A02
:1011E00005F0ADF8DFF89C0A05F0A9F8DFF8980AD9
:1011F00005F0A5F8DFF8940A05F0A1F8DFF8900AE9
:1012000005F09DF8DFF88C0A05F099F803E079689D
:10121000034805F094F80020BDEC068BBDE8F2838E
:10122000F4B00408650000006400000073000000D2
:10123000BC760408E87604081477040840770408AC
:10124000B4B70408E8C204083F000000B8BD0408B1
:101250001CB10408F0C20408C4BD04087893040853
:10126000FFFF3F001056040890680408907F0408B0
:10127000C86804080069040858650308585604083B
:10128000B053040859EE002098A704089893040866
:10129000C4B7040870B52DED028B04000D00DFF813
:1012A000F8196868FEF782FF002824D0A86807F0C4
:1012B00052FD51EC100B0022002309F0EFF814D876
:1012C000A86807F048FD51EC100B0122DFF8CC397B
:1012D00009F0FCF809D2E86804F0D9FD002800F113
:1012E0007081E86804F0D3FD6BE1A968DFF8600B5A
:1012F00005F025F865E1DFF8A8196868FEF756FFE4
:10130000002812D0A86804F0C2FD01230200D2B266
:101310000021002009F0D3F9002840F05281E9684B
:10132000DFF82C0B05F00BF84BE1A8A16868FEF77D
:101330003DFF002816D0E86804F0A9FD0600A86863
:1013400004F0A5FD320092B20100C9B2002009F0FC
:10135000BEFA002840F03581E968DFF8F40A04F0AD
:10136000EEFF2EE1DFF83C196868FEF71FFF00284A
:1013700016D0E86804F08BFD0600A86804F087FD2D
:10138000320092B20100C9B2002009F046FB0028E9
:1013900040F01781E968DFF8B80A04F0D0FF10E1E7
:1013A000DFF818186868FEF701FF002817D0A86852
:1013B00004F06DFD00280CD4A86804F068FD022834
:1013C00007DA09F0D0FBA968DFF8880A04F0B7FF54
:1013D000F7E0A968DFF8780A04F0B1FFF1E0DFF880
:1013E000781A6868FEF7E2FE002818D0A86804F0B2
:1013F0004EFD00280DD4A86804F049FD012808DA44
:1014000009F058F9C0B20100DFF8500A04F097FF64
:10141000D7E0A968DFF8380A04F091FFD1E0DFF8DF
:10142000401A6868FEF7C2FE002820D0A86804F0C1
:101430002EFD002815D4A86804F029FD022810DA32
:10144000A86804F024FDC0B209F03CFC10EE100ABC
:1014500009F066FD02000B00DFF80C0A04F06FFFD4
:10146000AFE0A968DFF8E80904F069FFA9E0DFF858
:10147000FC196868FEF79AFE002820D0A86804F0DE
:1014800006FD002815D4A86804F001FD022810DA32
:10149000A86804F0FCFCC0B209F0F1FB10EE100AE1
:1014A00009F03EFD02000B00DFF8BC0904F047FF25
:1014B00087E0A968DFF8980904F041FF81E0DFF8D0
:1014C000B0196868FEF772FE002845D0A86807F0DA
:1014D00042FC51EC100B0022DFF8983908F0DEFFD7
:1014E00034D8A86807F037FC51EC100B0122DFF864
:1014F000883908F0EBFF29D2E86804F0C8FC00281E
:101500001ED4E86804F0C3FC022819DAA86807F0C2
:1015100022FCB0EE408AF0EE608AE86804F0B7FC86
:10152000060051EC180B07F029FC00EE100A300001
:10153000C0B209F047FBDFF8440904F000FF40E0C7
:10154000E968DFF80C0904F0FAFE3AE0A968DFF870
:10155000000904F0F4FE34E0686800280BD032493A
:101560006868FEF723FE002805D120A16868FEF711
:101570001DFE002820D0DFF8080704F0E0FEDFF8A9
:10158000000904F0DCFEDFF8FC0804F0D8FEDFF808
:10159000F80804F0D4FEDFF8F40804F0D0FEDFF819
:1015A000F00804F0CCFEDFF8EC0804F0C8FEDFF829
:1015B000E80804F0C4FE04E06968DFF8940804F069
:1015C000BEFE0020BDEC028B70BD0000646972009D
:1015D000904E0408D4B70408B0A70408E4B7040880
:1015E000D0BD0408E08804083C4F04083F00000018
:1015F000E0500408F8C2040864000108D40001089F
:10160000F4B7040874B7040804B8040830B1040837
:1016100000C30408DCBD040808C304088C9D04084A
:1016200010C30408A89D040818C204086C770408B5
:101630004C430408204D0408244804083051040891
:101640008051040814B8040818C3040824B8040816
:1016500004890408A056040820C3040828C3040809
:101660002DE9F0412DED068B04000D00002600272A
:10167000DFF82818A868FEF799FD00281BD06868D5
:10168000002818D0686804F002FC80464046C0B2CA
:1016900009F0C3FF002806D04146C9B2DFF80008B0
:1016A00004F04DFE05E04146C9B2DFF8F80704F04A
:1016B00046FE002075E20FF2083841466868FEF7E2
:1016C00075FD002811D1BFA16868FEF76FFD0028E5
:1016D0000BD1BDA16868FEF769FD002805D1BBA14B
:1016E0006868FEF763FD00280CD001200600414623
:1016F0006868FEF75BFD002802D00020070001E0CB
:10170000012007003000C0B2012840F0AB81DFF8B3
:101710008815A868FEF74AFD002800F08F80E86869
:10172000002800F086802869002800F082800020D0
:101730000600DFF874172869FEF738FD002805D188
:10174000C3A12869FEF732FD002804D0002080469E
:101750000120060022E0DFF854172869FEF726FD75
:10176000002805D1BBA12869FEF720FD002804D080
:10177000012080460120060010E0DFF8781A286971
:10178000FEF714FD002805D1C3A12869FEF70EFD60
:10179000002803D002208046012006003000C0B29D
:1017A000012840D16869002830D0A86900282DD0D0
:1017B000686907F0D0FA51EC100B07F0DFFA00EE81
:1017C000100AB0EE409AA86907F0C5FA51EC100B68
:1017D00007F0D4FA00EE100AF0EE409AB0EE490A93
:1017E000F0EE690A3800C0B209F0C4FD002840F0EC
:1017F000D781E86804F04BFB00234246D2B20100D7
:1018000009B23800C0B20AF0A9F9C9E1E86804F0E9
:101810003EFB01234246D2B2010009B23800C0B2F9
:101820000AF09CF9BCE12969DFF8240604F087FD81
:10183000B6E1DFF83C0A04F082FDB1E1DFF8341ACA
:10184000A868FEF7B3FC002804D03800C0B20AF044
:1018500037FBA5E1DFF86413A868FEF7A7FC0028B2
:1018600004D03800C0B20AF0A1FB99E1DFF8081AF1
:10187000A868FEF79BFC00283FD053A16868FEF7DC
:1018800095FC00280ED0002009F094FE012804D118
:10189000DFF8E80904F053FD82E1DFF8E40904F021
:1018A0004EFD7DE149A16868FEF780FC00280ED05E
:1018B000022009F07FFE012804D1DFF8C80904F0F6
:1018C0003EFD6DE1DFF8C00904F039FD68E13DA19E
:1018D0006868FEF76BFC002800F06281012009F0C7
:1018E00069FE012804D1DFF8A40904F028FD57E1BE
:1018F000DFF89C0904F023FD52E1DFF89819A8688D
:10190000FEF754FC002868D0A9A1E868FEF74EFC59
:10191000002829D02869002821D0686900281ED015
:10192000286907F018FA51EC100B07F027FA00EEBF
:10193000100AB0EE40AA686907F00DFA51EC100BDE
:1019400007F01CFA00EE100AF0EE40AAB0EE4A0AC8
:10195000F0EE6A0A3800C0B209F022FC20E1DFF89C
:10196000100904F0ECFC1BE192A1E868FEF71EFCF4
:1019700000282DD03800C0B209F0D8FBB0EE408A64
:10198000F0EE608A3800C0B209F09CFE0100DFF87A
:10199000080904F0D4FC0421B0EE480A012003F049
:1019A000B2FFDFF8F80804F0CAFC0421B0EE680AC0
:1019B000012003F0A8FFDFF8E80804F0C0FCEFE026
:1019C000780000007A0000007831000078320000D2
:1019D000DFF89C0804F0B3FCE2E0DFF8C818A86860
:1019E000FEF7E4FB00281CD03800C0B209F08BFDE4
:1019F00080464046C0B2002809D13800C0B209F084
:101A000061FE0100DFF8A00804F099FCC8E038008E
:101A1000C0B209F057FE0100DFF8900804F08FFC17
:101A2000BEE065A1A868FEF7C1FB002814D038000D
:101A3000C0B209F0A2FD80463800C0B209F042FEF3
:101A400042460100DFF8680804F079FCA8E000BF16
:101A50006100000072000000A968DFF8F40304F0E0
:101A60006EFC9DE0DFF84C186868FEF79FFB0028CD
:101A70004CD0A868002816D0A86804F008FA0028FE
:101A800011D1002008F067FA012807D1DFF82808F3
:101A900004F055FC84E000BF73000000DFF81C0870
:101AA00004F04DFC7CE0A868002813D0A86804F07E
:101AB000EEF901280ED1012008F04DFA012804D1D9
:101AC000DFF8FC0704F03BFC6AE0DFF8F00704F005
:101AD00036FC65E0A868002813D0A86804F0D7F9A0
:101AE00002280ED1022008F036FA012804D1DFF8CE
:101AF000D00704F024FC53E0DFF8C00704F01FFC1B
:101B00004EE0DFF86C0704F01AFC49E06868002832
:101B10000CD0DFF8B0176868FEF748FB002805D145
:101B200056A16868FEF742FB002835D0DFF8980719
:101B300004F005FCDFF8940704F001FCDFF89007DF
:101B400004F0FDFB0A2003F0C1FEDFF8880704F073
:101B5000F6FBDFF8840704F0F2FBDFF8800704F0FF
:101B6000EEFBDFF87C0704F0EAFB0A2003F0AEFE90
:101B7000DFF8700704F0E3FBDFF86C0704F0DFFB2D
:101B80000A2003F0A3FEDFF8640704F0D8FBDFF8B7
:101B9000600704F0D4FB03E06968AD4804F0CFFBB4
:101BA0000020BDEC068BBDE8F08100001072040837
:101BB0007365740067657400706F7300A0C20408D9
:101BC00038B504000D00DFF82C176868FEF7EEFA50
:101BD00000281FD0A868002817D0A86804F057F97B
:101BE00001280DDBA86804F052F9032808DAA86878
:101BF00004F04DF90100C9B2012003F0CFFD3AE035
:101C0000DFF8F40604F09BFB35E0DFF8EC0604F0A7
:101C100096FB30E0DFF8E4166868FEF7C7FA0028A4
:101C200008D00121002003F0B9FDDFF8D40604F04C
:101C300086FB20E0686800280CD0DFF8881668680A
:101C4000FEF7B4FA002805D10CA16868FEF7AEFAD9
:101C500000280CD0DFF82C0B04F071FBDFF8280B08
:101C600004F06DFBDFF8240B04F069FB03E0696806
:101C7000774804F064FB002032BD00003F00000004
:101C8000B893040888480408E04A040898770408D0
:101C9000E85604089C5F040898C204080088B34012
:101CA00030C3040838C3040838B504000D00DFF859
:101CB000E01A6868FEF77AFA002835D0DFF8D81AFB
:101CC000A868FEF773FA00281CD0E868002814D032
:101CD000E86804F0DCF80A280FDBE86804F0D7F8BD
:101CE000DFF8B81A08800120DFF8B41A0870DFF8AE
:101CF000B40A006802F034FBA8E0DFF8740504F0D1
:101D00001EFBA3E0DFF8A41AA868FEF74FFA00282C
:101D100005D0DFF8900A006802F09BFA96E0DFF841
:101D2000900A04F00CFB91E0DFF86C1A6868FEF78B
:101D30003DFA002820D0A868002818D0A86807F02D
:101D40000AF851EC100B0022002308F0A7FB0ED874
:101D500003F0BBF9A86806F0FEFF51EC100B07F08A
:101D60000DF800EE100A012003F03DF96EE0DFF8F7
:101D7000400A04F0E4FA69E0DFF8301A6868FEF718
:101D800015FA002804D003F0A0F903F076F95DE01D
:101D9000DFF8201A6868FEF709FA002818D0A8684A
:101DA000002853D0A86806F0D6FF51EC100B002293
:101DB000002308F073FB49D8A86806F0CCFF51EC6B
:101DC000100B06F0DBFF00EE100A03F0CDFB3DE048
:101DD000DFF8A0146868FEF7E9F9002802D003F0E4
:101DE000FBF833E0686800280CD0DFF8D814686886
:101DF000FEF7DCF9002805D11AA16868FEF7D6F9CC
:101E000000281FD0DFF8B00904F099FADFF8AC0918
:101E100004F095FADFF8A80904F091FADFF8A409B4
:101E200004F08DFADFF8A00904F089FA0A2003F023
:101E30004DFDDFF8980904F082FADFF8940904F008
:101E40007EFA03E06968024804F079FA002032BDA6
:101E5000F4B0040840C30408E8BD040834B804081A
:101E6000F4BD04083F00000044B8040800BE0408A4
:101E70000CBE040800407FC000407F4044B104080D
:101E800028890408C49D0408D89304083C6C0408FD
:101E900030570408C47704084C89040818BE0408A5
:101EA000E09D0408FC9D040824BE040830BE04081C
:101EB0002DE9F0412DED048B84B005000E00CBA17F
:101EC0007068FEF773F9002820D0B06803F0DFFFD8
:101ED00001280DD101200AF0DDFEDFF8F8080078B6
:101EE0000428C0F27C81DFF8F00804F028FA76E1DB
:101EF00000200AF0CFFEDFF8DC0800780428C0F2EA
:101F00006E81DFF8D80804F01AFA68E1DFF8881863
:101F10007068FEF74BF9002840F06181B4A1706849
:101F2000FEF744F9002820D0B06803F0B0FF012884
:101F30000DD101200AF0DDFEDFF8980800780428B2
:101F4000C0F24D81DFF8980804F0F9F947E100206C
:101F50000AF0CFFEDFF87C0800780428C0F23F8149
:101F6000DFF8800804F0EBF939E1DFF87C187068DD
:101F7000FEF71CF9002830D0F06803F088FF002835
:101F80000BD1B06803F083FF00EE100A0021B8EE19
:101F9000C00A00200AF0E8FD21E1F06803F077FFB5
:101FA00001280BD1B06803F072FF00EE100A002187
:101FB000B8EEC00A01200AF0D7FD10E1DFF81408DE
:101FC00000780428C0F20B81F06803F060FF010084
:101FD000DFF8180804F0B3F901E1DFF814187068AD
:101FE000FEF7E4F8002840F0FA80DFF8081870687F
:101FF000FEF7DCF8002837D0B068002830D0F06851
:1020000000282DD0306900282AD0306903F03FFF26
:102010000400F06806F09FFEB0EE408AF0EE608AA1
:10202000B06806F098FEB0EE409AF0EE609A21009B
:102030000C0051EC180B06F0A1FE00EE900A2100F6
:10204000B0EE608A0C0051EC190B06F097FE00EE22
:10205000100A2100F0EE480A00200AF01FFCBEE042
:10206000834804F06CF9BAE07DA17068FEF79EF831
:10207000002850D07BA1B068FEF798F8002819D04E
:10208000F068002810D0F06803F001FFC0B20AF039
:1020900039FD10EE100A08F043FF02000B00DFF8D4
:1020A000580704F04CF99AE0F168DFF8340C04F0BA
:1020B00046F994E06CA1B068FEF778F8002824D0C7
:1020C000F06800281BD03069002818D0306906F06D
:1020D00042FEB0EE408AF0EE608AF06803F0D7FE70
:1020E000070001210C0051EC180B06F047FE00EE32
:1020F000100A21003800C0B20AF036FD6FE0F16826
:10210000DFF8DC0B04F01BF969E0B168DFF8D00BF5
:1021100004F015F963E0DFF8E4167068FEF746F89E
:1021200000285CD1DFF8281B7068FEF73FF8002814
:1021300021D001A8DFF81C1BD1E90023C0E900234E
:102140000020ADF80000F06803F0A1FEADF800003B
:10215000B06803F09CFE8DF8070002246F460DF175
:10216000080822003900404608F044F9082101A877
:102170000AF0E0FF33E0706800280BD05149706826
:10218000FEF714F8002805D138A17068FEF70EF8A4
:1021900000281FD0DFF8C00A04F0D1F8DFF8BC0A2D
:1021A00004F0CDF8DFF8B80A04F0C9F8DFF8380B0E
:1021B00004F0C5F8DFF8340B04F0C1F80A2003F08E
:1021C00085FBDFF8300B04F0BAF8DFF82C0B04F0D5
:1021D000B6F804E07168DFF8080B04F0B0F80020EE
:1021E00004B0BDEC048BBDE8F08100006F6E000010
:1021F0006F66660048C3040838B504000D00DFF8B8
:10220000FC1A6868FDF7D2FF002827D1DFF8F01A22
:102210006868FDF7CBFF002820D1686800280BD044
:1022200028496868FDF7C2FF002805D10FA168683A
:10223000FDF7BCFF00280CD0DFF8C80A04F07FF8D7
:10224000DFF8C40A04F07BF8DFF8C00A04F077F87E
:1022500004E06968DFF8880A04F071F8002032BDF4
:102260006465660067657400736574003F00000074
:1022700074B7040810C2040890C2040858B10408D6
:102280006CB1040880B1040894B10408A8B1040832
:1022900054B8040850C30408189E0408C8A70408CA
:1022A0003CBE040858C3040848BE040854BE0408D1
:1022B000E0A7040860C30408F893040870890408C0
:1022C0001894040818C204084072040874440408EE
:1022D000706C0408A46C0408DC5F0408D85A040875
:1022E0005C640408A8420408BC470408D86C0408CD
:1022F0001C600408E8C2040864B8040868C3040841
:10230000349E040870B52DED068B04000D00DFF837
:10231000001A6868FDF74AFF002853D0A868002813
:102320004BD0E868002848D02869002845D0686963
:10233000002842D0A86803F0AAFDC0B206F087F8D2
:10234000686906F008FDB0EE408AF0EE608A286900
:1023500006F001FDB0EE409AF0EE609AE86806F0F3
:10236000FAFCB0EE40AAF0EE60AAA86803F08FFD78
:10237000060051EC180B06F001FD01EE100AB0EE5C
:10238000418A51EC190B06F0F9FC00EE900AB0EE10
:10239000481AB0EE608AF0EE418A51EC1A0B06F052
:1023A000EDFC00EE100AB0EE681AF0EE480A0021CB
:1023B0003000C0B205F0D8FFDFE1DFF8580903F0C4
:1023C000BEFFDAE1DFF850196868FDF7EFFE00287C
:1023D00053D0A86800284BD0E868002848D0286966
:1023E000002845D06869002842D0A86803F04FFD56
:1023F000C0B206F02CF8686906F0ADFCB0EE408A79
:10240000F0EE608A286906F0A6FCB0EE409AF0EE85
:10241000609AE86806F09FFCB0EE40AAF0EE60AA71
:10242000A86803F034FD060051EC180B06F0A6FC7A
:1024300001EE100AB0EE418A51EC190B06F09EFC39
:1024400000EE900AB0EE481AB0EE608AF0EE418AD3
:1024500051EC1A0B06F092FC00EE100AB0EE681A6E
:10246000F0EE480A01213000C0B205F07DFF84E1A2
:10247000DFF8A00803F063FF7FE1DFF8BC1A6868AB
:10248000FDF794FE002853D0A86800284BD0E868D8
:10249000002848D02869002845D06869002842D023
:1024A000A86803F0F4FCC0B205F0D1FF686906F03B
:1024B00052FCB0EE408AF0EE608A286906F04BFCD0
:1024C000B0EE409AF0EE609AE86806F044FCB0EE98
:1024D00040AAF0EE60AAA86803F0D9FC060051EC0F
:1024E000180B06F04BFC01EE100AB0EE418A51ECDD
:1024F000190B06F043FC00EE900AB0EE481AB0EE5D
:10250000608AF0EE418A51EC1A0B06F037FC00EEBF
:10251000100AB0EE681AF0EE480A02213000C0B28C
:1025200005F022FF29E1DFF8EC0703F008FF24E1C2
:10253000DFF80C1A6868FDF739FE002853D0A86848
:1025400000284BD0E868002848D02869002845D0EA
:102550006869002842D0A86803F099FCC0B205F071
:1025600076FF686906F0F7FBB0EE408AF0EE608A0D
:10257000286906F0F0FBB0EE409AF0EE609AE86849
:1025800006F0E9FBB0EE40AAF0EE60AAA86803F0FE
:102590007EFC060051EC180B06F0F0FB01EE100A71
:1025A000B0EE418A51EC190B06F0E8FB00EE900A00
:1025B000B0EE481AB0EE608AF0EE418A51EC1A0B88
:1025C00006F0DCFB00EE100AB0EE681AF0EE480AE6
:1025D00003213000C0B205F0C7FECEE0DFF83407BB
:1025E00003F0ADFEC9E071496868FDF7DFFD002822
:1025F00014D0A86800280CD0A86803F048FCC0B22A
:1026000005F025FFA86803F042FCC0B205F071FF99
:10261000B3E0DFF8000703F092FEAEE0DFF8241924
:102620006868FDF7C3FD00282AD0A868002822D0DA
:10263000A86803F02CFCC0B205F075FE060030005F
:10264000C0B200280BD1A86803F021FCC0B205F08D
:10265000B3FD0100DFF8F00803F071FE8DE0A8681B
:1026600003F015FCC0B205F0A7FD0100DFF8DC089F
:1026700003F065FE81E0DFF89C0603F060FE7CE07D
:10268000DFF8CC186868FDF791FD002805D004211B
:10269000DFF8C00803F053FE6FE0DFF8BC1868688D
:1026A000FDF784FD00281BD03AA1A868FDF77EFD48
:1026B00000280AD04FF48041DFF8A0080AF065FF37
:1026C000DFF89C0803F03BFE57E04FF48041DFF851
:1026D0008C080AF05CFFDFF88C0803F030FE4CE059
:1026E000686800280CD0DFF880186868FDF75EFD88
:1026F000002805D12CA16868FDF758FD002837D0C7
:10270000DFF8680803F01BFEDFF8640803F017FE2B
:10271000DFF8600803F013FEDFF85C0803F00FFE3B
:10272000022003F0D3F8DFF8540803F008FEDFF8C6
:10273000300B03F004FEDFF82C0B03F000FEDFF893
:10274000280B03F0FCFD0A2003F0C0F8002630003F
:10275000C0B2042811DA3000C0B205F02DFD02002D
:102760003100C9B2DFF8040B03F0E9FD761CEEE797
:102770006968DFF86C0503F0E2FD0020BDEC068B14
:1027800070BD0000389404087C4D04081C5B0408EC
:1027900070C304086F66660098C2040836EE002015
:1027A0005AEE0020E0EC00203F000000A0C2040828
:1027B00074B8040878C30408509E0408FC45040853
:1027C000D84D0408EC48040858940408904F0408B5
:1027D0006C4604086B000020F8A7040810A8040841
:1027E00028A8040840A8040880C30408BCB1040851
:1027F00088C3040890C304087894040898C30408A4
:102800002DE9F0412DED088B84B005000E009FED01
:10281000BCBABCA421007068FDF7C8FC002823D016
:10282000B06800281AD0B06803F031FBC0B20AF0DB
:1028300051FFB0EE408AB06803F029FBC0B20AF045
:10284000E8FE040018EE100A08F06AFB02000B0014
:102850002100DFF81C0A03F072FDEFE1B168DFF838
:10286000800403F06CFDE9E1A7A17068FDF79EFC10
:1028700000280CD00AF05EFF10EE100A08F050FBA2
:1028800002000B00DFF8EC0903F059FDD6E1C7A107
:102890007068FDF78BFC00285BD000273800C0B2C1
:1028A000042819DAB7EE008A3800C0B206F0D2F870
:1028B000F0EE408A3800C0B205F07EFC040018EE4D
:1028C000900A08F02DFB02000B002100DFF8A80998
:1028D00003F035FD7F1CE1E704200AF0FBFEB0EEBB
:1028E000408A18EE100A08F01BFB02000B00DFF80C
:1028F0008C0903F024FD05200AF0ECFEF0EE408A7E
:1029000018EE900A08F00CFB02000B00DFF87009CB
:1029100003F015FD06200AF0DDFEB0EE409A19EE38
:10292000100A08F0FDFA02000B00DFF8580903F066
:1029300006FD07200AF0CEFEB0EE40BA1BEE100AEC
:1029400008F0EEFA02000B00DFF8E80A03F0F7FCEB
:1029500074E1DFF8E41A7068FDF728FC002806D05F
:10296000B06803F094FAC0B20BF04CFB66E1DFF8FC
:10297000CC1A7068FDF71AFC002879D068460A2145
:1029800004F086F900242000C0B20C2880F25681A1
:1029900000272000C0B20BF0E4FC80462000C0B24B
:1029A000002811D002281BD014D3042824D01DD312
:1029B00006282CD026D3082834D02ED30A283DD080
:1029C00036D30B2840D044E0DFF8781A68460BF085
:1029D00003FD3EE0DFF8701A68460BF0FDFC38E0BE
:1029E000DFF8681A68460BF0F7FC32E0DFF8601A8F
:1029F00068460BF0F1FC2CE0DFF8581A68460BF043
:102A0000EBFC26E090A168460BF0E6FC21E0DFF845
:102A1000481A68460BF0E0FC1BE08CA168460BF0FE
:102A2000DBFC16E0DFF8341A68460BF0D5FC10E04A
:102A3000DFF82C1A68460BF0CFFC0AE0DFF8241A06
:102A400068460BF0C9FC04E0DFF81C1A68460BF07E
:102A5000C3FC43469BB22200D2B2521C6946DFF847
:102A60000C0A03F06CFC0A2002F030FF641C8AE7B9
:102A7000DFF8FC197068FDF799FB002800F09880DA
:102A80002100B068FDF792FB002844D0F0680028D0
:102A90003CD0F06803F0FBF9C0B20AF0C1FDF0EEE3
:102AA000409AB0EE60AAF0EE41AADFF8C8090078BB
:102AB00004280ADBF06803F0EAF9C0B20AF0A9FDC5
:102AC0000100DFF8B40903F03AFC0821B0EE690A0E
:102AD000012002F018FFDFF8A40903F030FC082100
:102AE000B0EE4A0A012002F00EFFDFF8940903F06D
:102AF00026FC0821B0EE6A0A012002F004FF9DE0E6
:102B00000000000067657400656E7600DFF87409E8
:102B100003F015FC92E073A1B068FDF747FB0028B5
:102B200000F08C80F06800283AD03069002837D057
:102B30007069002834D0B069002831D0306906F0BF
:102B40000AF951EC100B06F019F900EE100AB0EE7C
:102B5000408A706906F0FFF851EC100B06F00EF990
:102B600000EE100AF0EE408AB06906F0F4F851EC7D
:102B7000100B06F003F900EE100AB0EE409AF06870
:102B800003F085F9B0EE480AF0EE680AB0EE491A93
:102B9000C0B20AF06FFDDFF8F00803F0D0FB4DE0A3
:102BA000DFF8E00803F0CBFB48E000BF616C6C008D
:102BB000706800280CD0DFF8B0137068FDF7F6FAE3
:102BC000002805D14AA17068FDF7F0FA002831D03D
:102BD000DFF8B80803F0B3FBDFF8B40803F0AFFB8D
:102BE000DFF8B00803F0ABFBDFF8AC0803F0A7FB9D
:102BF000DFF8A80803F0A3FBDFF8400B03F09FFB0E
:102C0000DFF83C0B03F09BFBDFF8380B03F097FB7E
:102C100000242000C0B2082810DA2000C0B20AF058
:102C2000F8FC02002100C9B2DFF8400603F087FB80
:102C3000641CEEE771682A4803F081FB002004B0B1
:102C4000BDEC088BBDE8F081557000005265730043
:102C5000F8C20408A0C3040898940408F077040894
:102C60001C78040838B504000D006868002819D0E5
:102C7000686806F070F851EC100B0022002307F092
:102C80000DFC0FD8686806F066F851EC100B06F0E2
:102C900075F800EE100A05F0E5FCDFF8EC0703F02C
:102CA0004EFB1BE0686800280BD0AF496868FDF751
:102CB0007DFA002805D10EA16868FDF777FA002893
:102CC00008D0DFF8880A03F03AFBDFF8840A03F043
:102CD00036FB03E06968024803F031FB002032BD97
:102CE000F4B0040873657400DC46040898640408B2
:102CF0003F0000005C6004087857040860BE0408C8
:102D0000A8C30408B8940408D0B10408E4B10408C6
:102D1000B0C3040874B70408B8C3040870B52DED37
:102D2000048B04000D0082A16868FDF73FFA0028BB
:102D30006ED0A868002866D0A86803F0A8F8C0B2D2
:102D400005F0F6FDB0EE408AF0EE608AB0EE419AF2
:102D5000A86803F09CF800282AD1DFF8180700784B
:102D600004280ADBA86803F092F8C0B205F024FA40
:102D70000100DFF8E00903F0E2FA0821B0EE480AAA
:102D8000012002F0C0FDDFF8D00903F0D8FA0821D5
:102D9000B0EE680A012002F0B6FDDFF8C00903F0CA
:102DA000CEFA0821B0EE490A012002F0ACFDBAE0EB
:102DB000DFF8C006007804280ADBA86803F067F88B
:102DC000C0B205F0F9F90100DFF8940903F0B7FA91
:102DD0000821B0EE480A012002F095FDDFF89C06BC
:102DE00003F0ADFA0821B0EE680A012002F08BFD75
:102DF000DFF88C0603F0A3FA0821B0EE490A01209F
:102E000002F081FD8FE0DFF87C0603F098FA8AE09B
:102E100048A16868FDF7CAF9002842D0A8680028D0
:102E20003AD0E868002837D02869002834D068698B
:102E3000002831D0E86805F08EFF51EC100B05F04A
:102E40009DFF00EE100AB0EE408A286905F083FF6E
:102E500051EC100B05F092FF00EE100AF0EE408AE4
:102E6000686905F078FF51EC100B05F087FF00EE64
:102E7000100AB0EE409AA86803F009F8B0EE480ACC
:102E8000F0EE680AB0EE491AC0B205F08DFDDFF829
:102E9000F80503F054FA46E0DFF8E80503F04FFACE
:102EA00041E0686800280BD02F496868FDF77EF97B
:102EB000002805D121A16868FDF778F900282DD0F8
:102EC000DFF8040B03F03BFADFF8000B03F037FAEE
:102ED000DFF8FC0A03F033FA0A2002F0F7FC0026C0
:102EE0003000C0B204280BDA3000C0B205F064F93B
:102EF00002003100C9B2DD4803F021FA761CEFE789
:102F0000DA4EDFF8102B0321300003F018FADFF857
:102F1000082B0421300003F012FA04E06968DFF89E
:102F2000DC0C03F00CFA0020BDEC048B70BD00003B
:102F300067657400736574006CBE04083F00000090
:102F4000C0C3040858C3040858A8040870A804089B
:102F5000C8C3040888A80408D0C3040800100240AD
:102F6000F8B104080CB2040818C20408D894040884
:102F70000C6D0408406D0408746D0408A86D040805
:102F800070B52DED048B82B004000D00B2A168680D
:102F9000FDF70CF900283AD0A868002831D0A868BD
:102FA00002F075FFC0B205F04FF9B0EE408AF0EEC6
:102FB000608AB0EE419AA86802F069FFC0B205F0DD
:102FC000FBF80100DFF8180B03F0B9F90321B0EEAC
:102FD000480A012002F097FCDFF8080B03F0AFF974
:102FE0000321B0EE680A012002F08DFCDFF8F80A38
:102FF00003F0A5F90321B0EE490A012002F083FC99
:1030000025E1A968DFF8F40B03F099F91FE193A11A
:103010006868FDF7CBF8002849D0A86800283CD0A4
:10302000E868002839D02869002836D06869002867
:1030300033D0E86805F08FFE51EC100B05F09EFED2
:1030400000EE100AB0EE408A286905F084FE51ECCB
:10305000100B05F093FE00EE100AF0EE408A68694E
:1030600005F079FE51EC100B05F088FE00EE100A19
:10307000B0EE409AA86802F00AFFB0EE480AF0EEFF
:10308000680AB0EE491AC0B205F00CF9C0B20100EE
:10309000DFF8940A03F053F9D9E0686900902B69CE
:1030A000EA68A968DFF8840A03F049F9CFE0DFF89D
:1030B000801A6868FDF77AF800283AD0A8680028D6
:1030C00031D0A86802F0E3FEC0B205F042FAB0EEDB
:1030D000408AF0EE608AB0EE419AA86802F0D7FE0E
:1030E000C0B205F069F80100DFF8F40903F027F930
:1030F0000321B0EE480A012002F005FCDFF8E409E4
:1031000003F01DF90321B0EE680A012002F0FBFB79
:10311000DFF8D40903F013F90321B0EE490A0120C6
:1031200002F0F1FB93E0A968DFF8D00A03F007F999
:103130008DE0DFF8CC1A6868FDF738F8002849D030
:10314000A86800283CD0E868002839D02869002801
:1031500036D06869002833D0E86805F0FCFD51ECF2
:10316000100B05F00BFE00EE100AB0EE408A286945
:1031700005F0F1FD51EC100B05F000FE00EE100A19
:10318000F0EE408A686905F0E6FD51EC100B05F0A1
:10319000F5FD00EE100AB0EE409AA86802F077FE46
:1031A000B0EE480AF0EE680AB0EE491AC0B205F077
:1031B000FEF9C0B20100DFF8700903F0C0F846E084
:1031C000686900902B69EA68A968DFF8600903F074
:1031D000B6F83CE0686800280CD0DFF8281A686868
:1031E000FCF7E4FF002805D191A16868FCF7DEFF39
:1031F000002827D0DFF8100A03F0A1F8DFF80C0A46
:1032000003F09DF8DFF8080A03F099F8DFF8040AE4
:1032100003F095F8DFF8000A03F091F80A2002F0B5
:1032200055FB00263000C0B2042810DA3000C0B2CE
:1032300004F0C2FF02003100C9B20C4803F07FF86D
:10324000761CEFE76968DFF8B40903F078F800202E
:1032500002B0BDEC048B70BD6765740073657400CB
:10326000DC6D0408106E0408446E040884B8040879
:1032700094B80408A0A804086C9E04089489040863
:10328000B8A80408889E040870B52DED028B0400D0
:103290000D00DFF888196868FCF788FF00284CD01B
:1032A000A868002844D0A86805F055FD51EC100B23
:1032B0000022002307F0F2F83AD8A86805F04BFD89
:1032C00051EC100B01225FF0804307F0FFF82FD282
:1032D000E868002827D0E86802F0D9FD002822D449
:1032E000E86802F0D4FD02281DDAE86805F033FD35
:1032F000B0EE408AF0EE608AA86802F0C8FD0600D1
:1033000051EC180B05F03AFD00EE100A3000C0B287
:103310000BF0E6F9A86802F0BAFD0100DFF8500AE8
:1033200003F00DF87FE0DFF84C0A03F008F87AE0CC
:10333000DFF8440A03F003F875E0DFF8401A686824
:10334000FCF734FF002822D0A86800281AD0A8680B
:1033500002F09DFD002815D4A86802F098FD02280F
:1033600010DAA86802F093FD9FED350AC0B20BF0A9
:10337000B7F9A86802F08BFD0100DFF8040A02F03B
:10338000DEFF50E0DFF8EC0902F0D9FF4BE0DFF898
:10339000F4196868FCF70AFF00281ED0A868002806
:1033A00016D0A86802F073FD002811D4A86802F0B6
:1033B0006EFD02280CDAA86802F069FDC0B20BF0BD
:1033C000CDF9C0B20100DFF8C00902F0B8FF2AE071
:1033D000DFF8A00902F0B3FF25E0686800280CD0F0
:1033E000DFF820186868FCF7E1FE002805D110A17D
:1033F0006868FCF7DBFE002810D0DFF84C0A02F00A
:103400009EFFDFF8480A02F09AFFDFF8440A02F054
:1034100096FFDFF8400A02F092FF04E06968DFF8E7
:10342000DC0702F08CFF0020BDEC028B70BD0000B9
:103430003F000000D0A80408D8C3040870C30408E3
:1034400000000000E0C30408E8C30408F0C3040857
:10345000F8C3040800C4040808C4040810C404081D
:1034600078BE040884BE040890BE0408E8A80408D6
:1034700018C404086B000020F89404089CBE0408DB
:10348000A8BE0408A4B80408B4BE0408189504082B
:103490004878040874780408A0780408CC780408F4
:1034A00070B52DED028B05000E00DFF87017706807
:1034B000FCF77CFE002843D0B06800283AD0F068C2
:1034C000002837D0B06802F0E2FCC0B205F077FB0C
:1034D0000100DFF8000A02F032FFF06805F03BFC63
:1034E00003210C0053EC102B0020DFF8EC190BF03B
:1034F000C9F905F043FC00EE100A2100012002F09A
:1035000002FA8CA002F01BFFF06805F024FCB0EE7C
:10351000408AF0EE608AB06802F0B9FC040051EC19
:10352000180B05F02BFC00EE100A2000C0B205F0CD
:1035300081FBFBE0B168DFF8C40602F000FFF5E0B4
:10354000DFF838187068FCF731FE00281CD0B0682E
:10355000002813D0B06802F09AFCC0B205F02FFB2F
:103560000100DFF8780902F0EAFEB06802F08FFC93
:103570009FED710AC0B205F05DFBD7E0B168DFF8DE
:103580007C0602F0DCFED1E0DFF854197068FCF72D
:103590000DFE00281AD0B068002811D0B06802F0E3
:1035A00076FCC0B205F00BFB0100DFF8380902F031
:1035B000C6FEB06802F06BFCC0B205F007FBB5E0D8
:1035C000B168DFF8380602F0BAFEAFE0DFF818198C
:1035D0007068FCF7EBFD002843D0B06800283AD0B3
:1035E000F068002837D0B06802F051FCC0B205F096
:1035F000E6FA0100DFF8F40802F0A1FEF06805F039
:10360000AAFB03210C0053EC102B0020DFF8C81894
:103610000BF038F905F0B2FB00EE100A2100012092
:1036200002F071F943A002F08AFEF06805F093FB06
:10363000B0EE408AF0EE608AB06802F028FC040028
:1036400051EC180B05F09AFB00EE100A2000C0B2F6
:1036500005F044FB6AE0B168DFF8A00502F06FFEF8
:1036600064E0DFF88C187068FCF7A0FD00281AD021
:10367000B068002811D0B06802F009FCC0B205F0B3
:103680009EFA0100DFF86C0802F059FEB06802F003
:10369000FEFBC0B205F0FEFA48E0B168DFF85C0559
:1036A00002F04DFE42E0706800280CD0DFF854159F
:1036B0007068FCF77BFD002805D123A17068FCF73A
:1036C00075FD00282DD0DFF8300802F038FE042107
:1036D000DFF8280802F033FEDFF8240802F02FFE9E
:1036E000DFF8200802F02BFEDFF81C0802F027FEAE
:1036F000DFF8180802F023FE00242000C0B20428DE
:1037000014DA2000C0B205F05AFA02002100C9B252
:10371000DFF8FC0702F013FE012002F0D7F8641C6A
:10372000EBE77168DFF8D40402F009FE0020BDEC7D
:10373000028B70BD2025250000000000F8780408E9
:10374000404B0408D05104083F000000B889040829
:1037500000A90408A49E0408C0BE0408CCBE040846
:10376000DC8904082DE9FC4104000D00DFF8A417F2
:103770006868FCF71BFD00280ED0A868002806D05A
:10378000A86802F084FBC0B20BF0CFFC19E1DFF8AF
:10379000880702F0D4FD14E1DFF880176868FCF7B1
:1037A00005FD002802D00BF05BF90AE1DFF8701785
:1037B0006868FCF7FBFC002820D0A868002818D017
:1037C000E868002815D0E86802F061FB0600A868E8
:1037D00002F05DFB6A463100C9B2C0B20BF03CFB9F
:1037E000012840F0EE800099DFF8380702F0A7FDCD
:1037F000E7E0DFF8240702F0A2FDE2E0DFF8281797
:103800006868FCF7D3FC00281FD0A868002817D0F0
:10381000E868002814D02869002811D0286902F02F
:1038200036FB0600E86802F032FB0700A86802F0E9
:103830002EFB32003900C9B2C0B20BF0F8FBC0E079
:10384000DFF8D40602F07BFDBBE09BA16868FCF7C3
:10385000ADFC00280ED0A868002806D0A86802F0A9
:1038600016FBC0B20BF03FF9ABE0DFF8AC0602F09C
:1038700066FDA6E098A16868FCF798FC00282CD0AB
:1038800096A1A868FCF792FC002809D0E8680028F7
:1038900006D0E86802F0FBFAC0B20BF08BF990E0BA
:1038A0009EA1A868FCF782FC002811D0E8680028D7
:1038B0000ED0286900280BD0286902F0E8FA06002B
:1038C000E86802F0E4FA3100C0B20BF0E3F978E006
:1038D000DFF8440602F033FD73E091A16868FCF75D
:1038E00065FC00282FD08DA1A868FCF75FFC00289C
:1038F00024D0E868002821D0286900281ED06869F3
:1039000000281BD0A869002818D0A86902F0BFFAC7
:103910000600686902F0BBFA0700286902F0B7FAEE
:103920008046E86802F0B3FA3300DBB23A00D2B264
:103930004146C9B2C0B20BF06AF942E0DFF8D805DF
:1039400002F0FDFC3DE0686800280BD0AD496868D6
:10395000FCF72CFC002805D172A16868FCF726FC56
:1039600000282AD0DFF8C40502F0E9FCDFF8C00522
:1039700002F0E5FCDFF8BC0502F0E1FCDFF8B80579
:1039800002F0DDFC052001F0A1FFDFF8B00502F038
:10399000D6FCDFF8AC0502F0D2FCDFF8A80502F097
:1039A000CEFC052001F092FFDFF89C0502F0C7FC79
:1039B000DFF8980502F0C3FC03E069688F4802F065
:1039C000BEFC0020BDE8F681008A040824790408C2
:1039D000E44F040870B504000D00DFF8740502F030
:1039E000AEFCDFF8700502F0AAFCDFF86C65306809
:1039F00000280DD00A2001F069FFB068002805D02A
:103A0000B2683168DFF8540502F099FC0C36EEE735
:103A1000002070BDD8BE0408E4BE04083EB5040012
:103A20000D000BF079FC02900BF07BFC0190DFF8AD
:103A30003005C1880091838842880188DFF8240519
:103A400002F07DFC9DF80B0000909DF80A309DF877
:103A500009209DF80810DFF8100502F070FC9DF8B1
:103A6000070000909DF806309DF805209DF8041091
:103A7000DFF8F80402F063FC00203EBD38B5040016
:103A80000D0002F0EAFD002032BDF8B504000D0083
:103A90000026DFF8DC0402F052FC0127A74208DA16
:103AA00055F827203900DFF8CC0402F048FC7F1CD1
:103AB000F4E70020F2BD00006572720038B5040022
:103AC0000D00A8A002F03BFC0A2001F0FFFE01F06F
:103AD00016FF002032BD000064697600676574003F
:103AE00020B2040820C4040828C4040838B504001F
:103AF0000D006868002806D0686802F0C8F9C0B2F6
:103B00000BF018FC07E00BF018FC0100C9B2DFF85D
:103B1000680402F014FC002032BD000073657400DC
:103B2000637572003F000000F0BE0408248A040898
:103B300030C4040870B504000D00DFF84014686854
:103B4000FCF734FB002817D0A86800280FD0A8681D
:103B500005F001F951EC100B05F010F900EE100A18
:103B60000BF028FCDFF8180402F0E9FB44E0A96838
:103B7000224802F0E4FB3FE080496868FCF716FB4E
:103B8000002808D09FED780A0BF014FCDFF8F4034E
:103B900002F0D5FB30E0DFF8F0136868FCF706FBB5
:103BA000002809D00BF046FC0600310089B2DFF88E
:103BB000DC0302F0C4FB1FE0686800280BD0114949
:103BC0006868FCF7F3FA002805D168A16868FCF77B
:103BD000EDFA00280CD0DFF8B80302F0B0FBDFF8F4
:103BE000B40302F0ACFBDFF8B00302F0A8FB03E083
:103BF0006968024802F0A3FB002070BDF4B004081D
:103C000038C4040818C20408488A0408B87F0408A5
:103C1000E07F0408088004083080040840C40408D9
:103C200070B52DED028B04000D0085A16868FCF7CE
:103C3000BDFA00281BD083A1A868FCF7B7FA0028BA
:103C40000ED000263000C0B2032880F287803000FA
:103C5000C0B20BF08DFC0A2001F038FE761CF1E7B3
:103C6000A86802F014F9C0B20BF082FC76E0DFF82D
:103C70002C136868FCF79AFA002802D00BF0FAFBC4
:103C80006CE0BE496868FCF791FA002802D00BF09E
:103C90002DFD63E039496868FCF788FA002802D0F6
:103CA0000BF014FD5AE0BE496868FCF77FFA002863
:103CB00015D0E86805F04FF8B0EE408AF0EE608A63
:103CC000A86802F0E4F8060051EC180B05F056F86D
:103CD00000EE100A3000C0B205F05EFA3EE0B149D5
:103CE0006868FCF763FA00280CD0E86802F0CFF8A7
:103CF0000600A86802F0CBF83100C9B2C0B205F0E6
:103D000028FA2BE0686800280BD0A7496868FCF700
:103D10004DFA002805D115A16868FCF747FA00287C
:103D200018D0A24802F00BFBA14802F008FBA14802
:103D300002F005FBA04802F002FB052001F0C6FDE1
:103D40009E4802F0FCFA9E4802F0F9FA052001F0C4
:103D5000BDFD03E069689B4802F0F1FA0020BDEC6C
:103D6000028B70BD0A0A0A00000000003F0000003C
:103D7000C09E04083895040858950408A0C2040899
:103D8000DC9E040858C3040818A9040838B50400C8
:103D90000D002BA16868FCF709FA002830D0A8684C
:103DA00002F075F8002812D106F0CAF8002807D0F2
:103DB0008548007804280ADB844802F0C0FA06E04F
:103DC00081480078042802DB814802F0B8FAA8682C
:103DD00002F05DF8012830D107F04AF8002807D03A
:103DE00079480078042828DB7A4802F0A8FA24E011
:103DF00075480078042820DB774802F0A0FA1CE020
:103E0000686800280BD068496868FCF7CFF900287B
:103E100005D12FA16868FCF7C9F9002809D06F48BF
:103E200002F08DFA6E4802F08AFA6E4802F087FAC4
:103E300003E06968634802F082FA002032BD0000A6
:103E400067657400616C6C0078950408605B040819
:103E50006C8A0408786E040838B504000D006249C5
:103E60006868FCF7A3F9002809D06049A868FCF746
:103E70009DF900282AD05E4802F061FA26E05D49EB
:103E80006868FCF793F9002803D05B4802F057FA02
:103E90001CE0686800280BD043496868FCF786F985
:103EA000002805D10AA16868FCF780F9002809D02C
:103EB000374802F044FA514802F041FA504802F003
:103EC0003EFA03E069683F4802F039FA002032BD4B
:103ED0003F00000030A9040800005940B4B80408AD
:103EE00048C4040834B2040850C4040858800408C4
:103EF00058C40408F89E0408908A0408D46404088E
:103F000080800408A8800408D0800408F880040891
:103F100084B8040860C40408B4B7040868C404087A
:103F2000C0C20408149F0408B8C20408B48A040874
:103F3000507904089C60040810650408AC6E0408FD
:103F40004C650408A45B0408E06E04088865040856
:103F500048A9040848B20408743B040870C4040863
:103F6000A8C4040860A9040878A9040890A9040852
:103F7000C4B804085CB2040878C4040898C20408F1
:103F8000A8A9040870B2040870C30408C0A90408F2
:103F9000309F0408DC6004082081040880C4040801
:103FA00088C4040890C4040818C2040818950408BA
:103FB000488104087C79040870810408A04B040837
:103FC00020520408F4B004086B0000204C9F040841
:103FD000D8A90408689F0408F0A9040808AA0408DE
:103FE00098810408C081040898C4040850C30408D8
:103FF00084B20408A0C40408D4B804087072040889
:10400000A072040881EA00039B0717D1820707D03A
:1040100010F8012B11F8013BBAB19A42F6D014E026
:1040200002680B689A42A2F1013301BF934313F077
:10403000803F50F8042F51F8043FF3D010F8012BC3
:1040400011F8013B0AB19A42F8D0D01A704730B447
:10405000002513E050F8042BD30744BFA9F1010356
:104060009A18091F042942F8045BFAD213468C07F8
:1040700044BF15809B1CC90748BF1D7050F8041B26
:104080000029E7D130BC70472DE9FB4F82B0060014
:104090001700DDF838800F9CDDF84090DDF844A073
:1040A0003000002807D1502080F31188BFF34F8FD4
:1040B000BFF36F8FFEE7B8F10A0F07D3502080F3EC
:1040C0001188BFF34F8FBFF36F8FFEE7494638006B
:1040D00080B200F03FFD0500002D61D0286B390053
:1040E00089B200EB8100001FC008C0000190019858
:1040F00010F0070F07D0502080F31188BFF34F8FC7
:10410000BFF36F8FFEE7380080B2009053464246FF
:104110000399280000F06EFC049A310001980BF01E
:104120001BFB2860002C00D025600BF096FBDFF80D
:104130006C160868401C0860DFF8642610680028C8
:1041400006D11560086801280CD100F08BFC09E04D
:10415000DFF8BC060068002804D11068C06A8045FA
:1041600000D31560DFF8AC060168491C01600068E7
:104170006864DFF8A4160A680123E86A83401A43DA
:104180000A60291DDFF89426EB6A1420434302EBF2
:1041900003000BF00FFC5FF0010B0BF078FB01E06C
:1041A0005FF0FF3BBBF1010F13D1DFF8640600683D
:1041B00000280ED0DFF8E8050068C06A404508D244
:1041C0005FF08050DFF83C170860BFF34F8FBFF3FC
:1041D0006F8F584605B0BDE8F08FF8B50400002594
:1041E000002C2AD0DFF894060068002807D0502061
:1041F00080F31188BFF34F8FBFF36F8FFEE700F09E
:1042000028F9DFF80407006820180600DFF8907529
:104210003868001D0BF0F5FB002808D13868DFF87E
:10422000F8150A680123C06A83409A430A60300087
:1042300000F06CFC00F013F90500002D08D15FF0D0
:104240008050DFF8C0160860BFF34F8FBFF36F8F49
:10425000F1BD70B504000BF000FB002C03D1DFF8BA
:104260004005056800E02500281D0BF0CAFB00286A
:104270000FD1DFF8A815EA6A1420424388580028B5
:1042800007D1DFF894150A680123E86A83409A434E
:104290000A60A86A002803D015F118000BF0B1FBE2
:1042A000DFF82867291D30000BF084FB0BF0EFFAD4
:1042B000DFF8EC140868854227D1DFF85405006860
:1042C000002816D0DFF8B4050068002807D0502079
:1042D00080F31188BFF34F8FBFF36F8FFEE75FF05E
:1042E0008050DFF820160860BFF34F8FBFF36F8F49
:1042F00016E03068DFF8A4241268904202D1002052
:1043000008600DE000F0FDF90AE0DFF80405006840
:10431000002805D00BF0A1FA00F0C1FC0BF0B7FAB1
:1043200070BD10B4020000201300002A07D15021F4
:1043300081F31188BFF34F8FBFF36F8FFEE7596989
:10434000DFF88846A14209D1996ADFF8384AA142CC
:1043500004D0996A002901D10121080010BC7047DE
:1043600070B504002500002C07D1502080F311887F
:10437000BFF34F8FBFF36F8FFEE7002D30D0DFF814
:104380002064306885422BD00BF067FA2800FFF7D5
:10439000C8FF012822D1281D0BF033FBDFF8781469
:1043A0000A680123E86A83401A430A60291DDFF87E
:1043B0006C24EB6A1420434302EB03000BF0FAFA7F
:1043C000E86A3168C96A884208D35FF08050DFF834
:1043D00080170860BFF34F8FBFF36F8F0BF057FA52
:1043E00070BD1FB5002003900020029000200190B6
:1043F0000020009000238022DFF88C190FF2D150AA
:10440000FFF742FE0400012C02D10BF00FFB040069
:10441000012C13D1502080F31188BFF34F8FBFF3CD
:104420006F8F0120DFF8E81308600020DFF8D81450
:10443000086001F097FB0BF0B6F909E0002C07D1FA
:10444000502080F31188BFF34F8FBFF36F8FFEE7CB
:104450001FBDDFF828040168491C0160704770B572
:104460000025DFF818643068002807D1502080F359
:104470001188BFF34F8FBFF36F8FFEE70BF0EDF99D
:104480003068401E30603068002853D1C34800684F
:1044900000284FD0DFF8EC180868002826D0C8683C
:1044A000C068040014F118000BF0ABFA201D0BF0EB
:1044B000A8FADFF864130A680123E06A83401A430C
:1044C0000A60211DDFF85423E36A1420434302EB02
:1044D00003000BF06FFAE06AB1490968C96A8842C3
:1044E000D8D30120DFF874190860D3E7DFF86869D2
:1044F000306800280ED0306800280BD000F07BF820
:10450000002803D00120DFF8541908603068401EED
:104510003060F0E7DFF84409006801280AD1012083
:1045200005005FF08050DFF8DC130860BFF34F8FA9
:10453000BFF36F8F0BF0ABF9280070BDDFF8C80335
:10454000006870479548006870472DE9F84F0600ED
:104550000F0015005FF000080A24FFF77AFF8F486C
:104560000068874242D3641E0122AC48142101FB3B
:1045700004F101445FEA4810304400F019FB10EBED
:1045800008008046002CEED10222DFF82C040168DE
:104590005FEA4810304400F00BFB814619EB080934
:1045A0000222DFF8240401685FEA4910304400F079
:1045B000FFFA82461AEB090A042299495FEA4A1077
:1045C000304400F0F5FA83461BEB0A0B0322DFF8B8
:1045D000FC135FEA4B10304400F0EAFA10EB0B00DA
:1045E0008046002D02D001F0FBFA2860FFF737FF6C
:1045F0004046BDE8F28F2DE9F04100279F48006852
:1046000000286FD1DFF800030168491C01600468CD
:10461000002C1CD1DFF8A01308680068002807D020
:10462000502080F31188BFF34F8FBFF36F8FFEE7E9
:10463000D1F80080DFF8900302680A60C0F80080BB
:10464000DFF81C080168491C016000F028FBDFF856
:104650001488D8F80000844238D3DFF85C13086867
:104660000068002804D15FF0FF30C8F800002DE09A
:104670000868C068C068050068680600B44202D2D5
:10468000C8F8006022E0281D0BF0BBF9A86A0028DA
:1046900003D015F118000BF0B4F95F490A68012343
:1046A000E86A83401A430A60291D5C4AEB6A1420B9
:1046B000434302EB03000BF07DF9E86A38490968CF
:1046C000C96A8842C9D301200700C6E75349344864
:1046D0000068C26A142042438858022807D3012088
:1046E000070004E0DFF870070168491C0160DFF88B
:1046F0006C070068002801D0012007003800BDE8E1
:10470000F08110B55D480068002804D00120DFF872
:104710004C17086040E00020DFF840170860DFF821
:10472000484701F05DFA2060DFF84017086822680A
:10473000904207D21A480268536D2068C31808686F
:104740001B1A53652068086033480068B0FA80F18E
:10475000D1F11F011422314B02FB01F0185800283F
:1047600007D1502080F31188BFF34F8FBFF36F8FB5
:10477000FEE702FB01F203EB02004268526842606E
:10478000426810F108039A4202D1426852684260BE
:104790004068C068024A106010BD0000A8ED00200B
:1047A00098ED0020F8B504000D00002C07D1502032
:1047B00080F31188BFF34F8FBFF36F8FFEE7DFF8F1
:1047C000B476386810F1180120000BF0FFF8386853
:1047D000001D0BF016F9002807D138680E490A6849
:1047E0000123C06A83409A430A6015F1010F05D185
:1047F0003868011D75480BF0DDF807E0DFF87C062E
:10480000006828180600300000F080F9F1BD0000B3
:10481000B4ED0020C4ED0020B0ED0020F0E5002054
:10482000A4EB002070B504000D00002C07D150202F
:1048300080F31188BFF34F8FBFF36F8FFEE7DFF870
:104840003466306810F1180120000BF0B3F83068BE
:10485000001D0BF0D6F8002808D13068DFF81816D4
:104860000A680123C06A83409A430A60DFF80C0695
:104870000668AE19300000F049F970BDC8ED00209F
:1048800038B50500E868C468002C07D1502080F3D3
:104890001188BFF34F8FBFF36F8FFEE714F118003D
:1048A0000BF0AFF8DFF8D8050068002815D1201DFF
:1048B0000BF0A7F8DFF8C0150A680123E06A83400F
:1048C0001A430A60211DDFF8BC25E36A1420434324
:1048D00002EB03000BF06EF805E014F11801DFF8AD
:1048E000A4040BF067F8DFF88C050068C06AE16A81
:1048F000884205D201200121DFF87425116000E013
:10490000002032BD04ED00E0ACED0020002807D10E
:10491000502181F31188BFF34F8FBFF36F8FFEE7F4
:10492000DFF83C1509680160DFF85015096841603F
:104930007047F8B504000D00002C07D1502080F31B
:104940001188BFF34F8FBFF36F8FFEE7002D07D1A4
:10495000502080F31188BFF34F8FBFF36F8FFEE7B6
:104960000AF07BFFDFF814050668286810F1010FD4
:1049700001D100271AE0DFF8E804006821688842C6
:1049800004D06068864201D301270FE06068301AC6
:104990002968884209D22968891B60684118296002
:1049A0002000FFF7B3FF002700E001270AF06FFFA8
:1049B0003800F2BD000000009CED00200120DFF86F
:1049C000B014086070470000A0ED0020B8EB002094
:1049D00010B5040000F070F8DFF8A80400680228A1
:1049E000F8D35FF080505A490860BFF34F8FBFF390
:1049F0006F8FEFE72DE9F04104000D0016001F0056
:104A00005FF00008B8F1100F0CD215F8080004EBA5
:104A1000080181F8340015F80800002802D018F1C8
:104A20000108EFE7002084F843000A2E01D3092093
:104A30000600E662E66400202065201D0AF0B7FF4C
:104A400014F118000AF0B3FF2461D6F10A00A06146
:104A50006462002060650020A065002084F85C008E
:104A6000BDE8F08170B500240A2C09D2DFF81404E7
:104A7000142101FB04F108440AF08AFF641CF3E7E7
:104A8000DFF8045428000AF083FFDFF800643000E8
:104A90000AF07EFFBB480AF07BFFDFF8F4030AF060
:104AA00077FFDFF8F0030AF073FFDFF8EC0305602F
:104AB000DFF8E803066070BD70B5DFF8E4532868DE
:104AC000002822D0FFF7C5FCDFF8C4633068002857
:104AD00001D1012400E00024FFF7C1FC002CECD13F
:104AE0000AF0BBFEF068C668301D0AF08AFFDFF8E6
:104AF000B4030168491E01602868401E28600AF05E
:104B0000C6FE300000F0C2F8D7E770BD10B5040053
:104B1000DFF8600301684C60DFF8601309688C42BD
:104B200007D20068011DDFF8740300680AF04EFF29
:104B30000CE00068011DDFF8600300680AF046FF22
:104B4000DFF8200301688C4200D2046010BD000031
:104B500004ED00E02DE9F84307000D00002D06D11B
:104B6000380080B280000BF097F9060000E02E00BC
:104B7000002E0BD060200BF08FF90400002C01D028
:104B8000266304E030000BF0EBF900E00024002C79
:104B90000BD0380080B286005FF0A508D4F83090C2
:104BA0004246310048460BF017FA2000BDE8F28378
:104BB0002DE9F84304000D0016005FF00009286895
:104BC000002855D02800416849684160416810F1CB
:104BD0000802914202D14168496841604068C0685A
:104BE00080462800416849684160416810F1080228
:104BF000914202D14168496841604068C06807003D
:104C00005FEA4910275017F134005FEA4911214447
:104C10004860786C5FEA4911214488605FEA491076
:104C200020440673F86A5FEA4911214408613000A4
:104C3000C0B2032807D1B86A002804D002205FEA76
:104C4000491121440873F86C5FEA49112144486115
:104C5000786D5FEA491121448861386B00F00BF8E8
:104C60005FEA49112144888319F101094745B8D108
:104C70004846BDE8F283010000200A78A52A02D147
:104C8000491C401CF9E7800880B2704710B5040049
:104C9000206B0BF065F920000BF062F910BDDFF816
:104CA000F82110680068002805D15FF0FF30DFF8B8
:104CB000B421106007E01068C068C068010048684F
:104CC000DFF8A02110607047DFF8E00100680028DD
:104CD00001D1012007E0DFF8A8010068002801D118
:104CE000022000E0002070472DE9F041040025007B
:104CF000002C44D0DFF8B081E86AD8F80010C96A07
:104D000088423CD2A869002805D4D8F80000C06ABF
:104D1000D0F10A00A861DFF86C6114276869E96ABC
:104D200079433144884226D1281D0AF06AFE0028C2
:104D30000CD1E86A78433058002807D1DFF87011A9
:104D40000A680123E86A83409A430A60D8F80000A1
:104D5000C06AE862DFF858110A680123E86A8340F4
:104D60001A430A60291DE86A07FB00F706EB0700F3
:104D70000AF020FE03E0D8F80000C06AE862BDE84F
:104D8000F081000090EB002080C5040870B504009D
:104D900025000026002C50D0DFF80C010068854269
:104DA00007D0502080F31188BFF34F8FBFF36F8F70
:104DB000FEE7286D002807D1502080F31188BFF34B
:104DC0004F8FBFF36F8FFEE7286D401E2865E86A9E
:104DD000E96C884231D0286D00282ED1281D0AF0B8
:104DE00010FE00280FD1DFF89C10EA6A142042431D
:104DF0008858002807D1DFF880100A680123E86A84
:104E000083409A430A60E86CE862E86AD0F10A00DD
:104E1000A861DFF864100A680123E86A83401A4336
:104E20000A60291DDFF85C20EB6A1420434302EB83
:104E300003000AF0BFFD01200600300070BDDFF85E
:104E400068100868002803D00868026D521C0265CB
:104E50000868704700000000B8ED0020BCED00209D
:104E6000C0ED002028000020D0ED0020CCED002077
:104E7000BCED002098ED0020B0ED0020ACED00204E
:104E8000C8ED0020F0E5002068EB00207CEB00205E
:104E9000A4EB0020B8EB00209CED0020A0ED00204A
:104EA000A4ED0020A8ED002098ED0020B4ED002036
:104EB000B0ED00201FB5DFF8F84800202070012079
:104EC00060700020A0700020E070002020710020A1
:104ED00060710020A0710022082105200BF0F8F875
:104EE000A0600022082105200BF0F2F8E06000200D
:104EF0002061002060610020A0610020E0610020AE
:104F0000A0630020E063002084F8230000202065D7
:104F1000002007F0ABFD012007F0A8FD00F05CF8D1
:104F2000002003900020029014F130000190062030
:104F3000009023004FF48062DFF878180FF2D95008
:104F4000FFF7A2F8002003900020029014F1340033
:104F500001900620009023004FF40072DFF85818EB
:104F60000FF24930FFF790F80FF29560009005239B
:104F700001224FF47A71DFF844080AF07FFD2064C3
:104F80001FBDDFF82C1881F82300704710B504000E
:104F9000DFF82C080078042805DB2100C9B2DFF80F
:104FA000240801F0CCF90AF058FCDFF8040844703A
:104FB000012101700AF06BFC0020FFF7E2FF10BD39
:104FC00080B500F082F800F058F8DFF8E40700211F
:104FD000C1640021816401BD80B5DFF8D407407849
:104FE000FFF7D4FF01BDF8B52DED028B0400B0EE44
:104FF000408A25000126DFF8B877B87800282CD140
:105000000120B8700020F870FFF798FA00EE100A3F
:10501000B8EE400A87ED0F0A87ED0E8A280097F850
:105020002310C0B2884203D02800C0B2FFF7A9FF06
:10503000DFF88C07007804280BDB18EE100A05F067
:105040006FFF02000B002100C9B2DFF87C0701F0FE
:1050500076F9786BFFF784F90AE0DFF864070078E7
:10506000022803DBDFF8640701F069F9002006007D
:105070003000C0B2BDEC028BF2BD10B50124DFF8E8
:105080003007817801290DD1002181700121C17083
:10509000DFF82C07007804280FDBDFF8340701F075
:1050A0004EF90AE0DFF818070078022803DBDFF882
:1050B000240701F044F9002004002000C0B210BD14
:1050C0000120DFF8EC16087170470020DFF8E016C9
:1050D000087170472DE9F84F2DED028B88B007005D
:1050E0000E00DFF8F406D0E900455FF0000A4FF447
:1050F0000069CDF80C9000200290DFF8E086C346EE
:10510000029A039958460AF067FFCDF804900020F0
:105110000090DFF8CC96CB46009A019958460AF0E9
:105120005BFFFFF70BFA9FED608A96ED0E0A20EE0B
:10513000080ABCEEC00A10EE101A40180490FFF7DF
:10514000FDF900EE100AB8EE400A86ED0F0A0220C3
:1051500000F0BCFBF078012802D1C7E900459DE0D2
:105160000023002205A9F0680BF088F90028EED092
:10517000DFF83C0690ED120A60EE080AFCEEE00A49
:1051800010EE901A524692B228F81210D0ED138AFF
:1051900068EE880AFCEEE00A10EE900A514689B2E9
:1051A00029F811001AF1010ADFF814B69BF8000083
:1051B000052811DB53469BB2504680B209EB4000F4
:1051C00030F8022C504680B208EB400030F8021C48
:1051D000DFF8100601F0B3F8F078012806D10020BE
:1051E000040000200500C7E9004557E0FFF7A6F9D5
:1051F000643004998142AAD29BF80000042805DBA0
:10520000514689B2DFF8E00501F099F8504680B2C6
:10521000002835D0F078002832D1504680B20F21D6
:1052200090FBF1F003009BB2504680B20F2190FB3F
:10523000F1F0020092B2514689B2404600F070FA95
:105240000400504680B20F2190FBF1F003009BB2A6
:10525000504680B20F2190FBF1F0020092B251460D
:1052600089B2484600F05CFA05009BF8000004286B
:1052700012DB069A0599DFF8740501F060F80BE07F
:1052800000200400002005009BF80000042803DB38
:10529000DFF85C0501F053F8C7E9004508B0BDEC44
:1052A000028BBDE8F18F000000007A442DE9F04345
:1052B00085B00400DFF83C05D0E90023CDE90023E8
:1052C0002500A878002803D002287BD01ED3F8E759
:1052D0000BF0D1FD012815D12879012812D1E878E9
:1052E00001280FD10C2215F124014FF40C400BF0D2
:1052F00053FE0BF06BFE0C2215F124014FF40C4011
:105300000BF057FE0020FEF7A4FFDAE795F8230024
:10531000002812D1290002A8FFF7DCFEDDE9020116
:10532000CDE90001DFF898040078042805DB019A34
:105330000099DFF8C40401F002F8DFF88404007873
:10534000042817DBFFF7FAF800EE100AB8EE400A5F
:10535000D5ED0F0A30EE600ADFEDA80A80EE200AD4
:1053600010EE100A05F0DCFD02000B00DFF88C04E3
:1053700000F0E5FFE878002801D1002600E00226D1
:1053800002A800210022002380E80E000827E8463A
:105390000DF108093A004146484605F02BF88DF812
:1053A0001060092202A94FF40C400BF0F5FD092210
:1053B00002A94FF40C400BF0FCFD0020E870002027
:1053C000A8707EE70020FEF744FF7AE72DE9F0435E
:1053D0002DED010A04000D002000C0B200283DD0D0
:1053E0002800C0B200281BD10427E846DFF8C063BC
:1053F00016F148093A004146484604F0FBFFDFF841
:10540000C0030078052808DBB06C05F089FD0200B8
:105410000B00DFF8EC0300F092FF012070711AE03E
:105420000427E846DFF8886316F14C093A00414644
:10543000484604F0DFFFDFF888030078052808DB22
:10544000F06C05F06DFD02000B00DFF8B80300F012
:1054500076FF0120B071DFF858030471BDE8F183D5
:10546000FEB501A80021016000200090DFF8404354
:105470006079002826D0A06C00900BF0FCFC01287D
:1054800049D1DFF83C030078052808DB009805F0D7
:1054900047FD02000B00DFF8680300F050FF042511
:1054A0006E4601AF2A003100380004F0A3FF042249
:1054B00001A948F604400BF06FFD00202071002088
:1054C000607128E0A079012825D1E06C00900BF0F4
:1054D000D2FC01281FD1DFF8E8020078052808DB9C
:1054E000009805F01DFD02000B00DFF8180300F026
:1054F00026FF04256E4601AF2A003100380004F073
:1055000079FF042201A948F605400BF045FD002073
:1055100020710020A071F7BD2DE9F8432DED0A8B15
:10552000040025009FED9C8ADFED9B8A9FED9A9AEF
:10553000DFED999A9FED98AADFED97AA00269FEDDF
:1055400096BADFED95BA00279FED93CA5FF0000889
:105550005FF0000996480079012801D1FFF780FF2C
:105560003220FEF73AFEF5E710B52DED028B82B042
:10557000B0EE408A924C2078042802DBA24800F06A
:10558000DEFE0321B0EE480A042000F0BCF92078CA
:10559000042802DB84A000F0D2FEB5EE408AF1EED2
:1055A00010FA1EDD824C0020009000239FED130AAC
:1055B00028EE000AF7EE000A80EE200ABCEEC00AD0
:1055C00010EE102A0421206C0AF083FAFEF7B6FFD1
:1055D00000210091002302000121206C0AF079FAD9
:1055E00008E0002000900023002203217048006C96
:1055F0000AF06FFA02B0BDEC028B10BD00007A44D5
:10560000FEB504000BF037FC012836D10825002632
:105610006F463200290038000AF0DEFC644890ED45
:10562000120AB5EE400AF1EE10FA0ADD90ED120A08
:10563000DFED5E0A20EE200ABCEEC00A8DED010A05
:1056400001E00021019190ED130AB5EE400AF1EE60
:1056500010FA0ADD90ED130ADFED540A20EE200A5D
:10566000BCEEC00A8DED000A01E000200090082287
:10567000694648F601400BF08FFCF7BD10B52DEDE3
:10568000028B82B04A4890ED128A07F065FD040053
:10569000009418EE100A05F043FC02000B005B4872
:1056A00000F04DFE02B0BDEC028B10BD70B40025C1
:1056B00000220023012425000E00ADB2B6B2B5428F
:1056C0002CD24D1E2A0015002600ADB2B6B2B5424E
:1056D00022D31500ADB230F815501600B6B200EB6B
:1056E000460636F8026CB54214D21500ADB200EB96
:1056F000450535F8025C2B001500ADB230F81550A9
:105700001600B6B200EB460626F8025C1500ADB2F4
:1057100020F81530521ED6E7641CCCE770BC7047E9
:105720002DE9FE4F05000C0016001F005FF0000A77
:105730005FF000085FF00009210089B22800FFF740
:10574000B5FF210089B2380080B2091A48000190E3
:10575000380080B205EB40000090AB46019A0099FA
:10576000584604F047FEA41BE41B00210800220059
:1057700080B292B2904207D2080080B235F8100091
:1057800019EB0009491CF1E7200080B2B9FBF0F0E9
:1057900080B2BDE8FE8F000000000000044A82F8DD
:1057A000440082F8451070472073000000247449BB
:1057B00070E9002000B40408D4B90408E4B904086E
:1057C0006B000020989704085C62040814B4040875
:1057D000D0A1040828B4040828C5040870B4002027
:1057E00070BC002078830408B8970408A0830408DC
:1057F000ECA1040830C50408F48C0408C88304082C
:10580000D4BF0408E0BF040808A20408D89704081D
:1058100010B4020052B2002A0AD50A01DFF804359A
:10582000040064B214F00F04234403F8042C05E0D0
:105830000A01DFF8F434040064B21A5510BC704752
:10584000BFF34F8FDFF8E4140A6812F4E062DFF868
:10585000E00402430A60BFF34F8F00BFFDE710B5BD
:105860000400601EB0F1807F01D3012011E0601EB2
:10587000DFF8C01408600F215FF0FF30FFF7C8FFAA
:105880000020DFF8B41408600720DFF8B0140860C7
:10589000002010BDF8B55FF400315FF000600BF040
:1058A000DEFB4FF440700BF0A1FB68460BF0ECFB05
:1058B00001984FF47A71B0FBF1F0FFF7D0FF0F21A0
:1058C0005FF0FF30FFF7A4FF05B000BD10B5040086
:1058D0000120B4FBF0F0FEF780FC10BD10B40021F5
:1058E00081420AD2002213009BB247F23054A342F5
:1058F00001DA521CF7E7491CF2E710BC704780B58B
:10590000FFF79EFF01BD70B52DED048B0400B0EED6
:10591000408A0D00DFF8280400782100C9B28842CF
:105920002DD3B5EE408AF1EE10FA06D58CA000F02A
:1059300006FDBFEE000A28EE008AFCEEC88A18EECB
:10594000901AA6A000F0FBFCB8EE680A38EE409A68
:1059500000262800C0B2864211DAB2EE040A29EE0F
:10596000009ABCEEC90A10EE101A0A20B1FBF0F240
:1059700000FB1211A9A000F0E2FC761CE9E7BDECE7
:10598000048B70BD38B504000D00DFF8B403007857
:105990002100C9B2884210D3684600210160280066
:1059A000ADF8000068462900090C4180BDF80020D0
:1059B0004188DFF8900300F0C2FC31BD2DE9F84FBB
:1059C00084B0814600215FF0000B002600273400E0
:1059D0003D00CDE902670800411CC0B219F8000083
:1059E0000028F8D1B1F101084046C0B211280ADB05
:1059F000DFF84C030078022805DB4146C9B2DFF826
:105A0000480300F09CFCB8F10100C0B25FEA800AD4
:105A10004046B0F10108C0B2002800F09B80484623
:105A200010F10109007830282AD031282BD03228F3
:105A30002ED0332831D0342834D0352837D03628EA
:105A40003AD037283DD0382840D0392843D0412893
:105A500046D0422849D043284CD044284FD045282E
:105A600052D0462855D061283AD062283DD06328CC
:105A700040D0642843D0652846D0662849D04DE000
:105A800034003D0054E00120002104000D004FE0EF
:105A90000220002104000D004AE003200021040040
:105AA0000D0045E00420002104000D0040E0052029
:105AB000002104000D003BE00620002104000D0041
:105AC00036E00720002104000D0031E0082000210D
:105AD00004000D002CE00920002104000D0027E047
